{
  "contractName": "Game",
  "abi": [
    {
      "constant": true,
      "inputs": [],
      "name": "contract_balance",
      "outputs": [
        {
          "internalType": "uint256",
          "name": "",
          "type": "uint256"
        }
      ],
      "payable": false,
      "stateMutability": "view",
      "type": "function"
    },
    {
      "constant": true,
      "inputs": [
        {
          "internalType": "uint256",
          "name": "",
          "type": "uint256"
        }
      ],
      "name": "computer_game",
      "outputs": [
        {
          "internalType": "bool",
          "name": "flag",
          "type": "bool"
        },
        {
          "internalType": "address payable",
          "name": "p",
          "type": "address"
        },
        {
          "internalType": "uint256",
          "name": "val",
          "type": "uint256"
        },
        {
          "internalType": "uint256",
          "name": "choice",
          "type": "uint256"
        },
        {
          "internalType": "uint256",
          "name": "game_count",
          "type": "uint256"
        },
        {
          "internalType": "uint256",
          "name": "p_win",
          "type": "uint256"
        }
      ],
      "payable": false,
      "stateMutability": "view",
      "type": "function"
    },
    {
      "constant": true,
      "inputs": [],
      "name": "owner",
      "outputs": [
        {
          "internalType": "address payable",
          "name": "",
          "type": "address"
        }
      ],
      "payable": false,
      "stateMutability": "view",
      "type": "function"
    },
    {
      "constant": true,
      "inputs": [
        {
          "internalType": "uint256",
          "name": "",
          "type": "uint256"
        }
      ],
      "name": "game",
      "outputs": [
        {
          "internalType": "bool",
          "name": "flag",
          "type": "bool"
        },
        {
          "internalType": "address payable",
          "name": "p1",
          "type": "address"
        },
        {
          "internalType": "address payable",
          "name": "p2",
          "type": "address"
        },
        {
          "internalType": "uint256",
          "name": "val",
          "type": "uint256"
        },
        {
          "internalType": "uint256",
          "name": "choice1",
          "type": "uint256"
        },
        {
          "internalType": "uint256",
          "name": "choice2",
          "type": "uint256"
        },
        {
          "internalType": "bytes32",
          "name": "hash1",
          "type": "bytes32"
        },
        {
          "internalType": "bytes32",
          "name": "hash2",
          "type": "bytes32"
        },
        {
          "internalType": "uint256",
          "name": "game_count",
          "type": "uint256"
        },
        {
          "internalType": "uint256",
          "name": "p1_win",
          "type": "uint256"
        }
      ],
      "payable": false,
      "stateMutability": "view",
      "type": "function"
    },
    {
      "inputs": [],
      "payable": true,
      "stateMutability": "payable",
      "type": "constructor"
    },
    {
      "payable": true,
      "stateMutability": "payable",
      "type": "fallback"
    },
    {
      "anonymous": false,
      "inputs": [
        {
          "indexed": false,
          "internalType": "string",
          "name": "s",
          "type": "string"
        },
        {
          "indexed": false,
          "internalType": "uint256",
          "name": "p1c",
          "type": "uint256"
        },
        {
          "indexed": false,
          "internalType": "uint256",
          "name": "p2c",
          "type": "uint256"
        }
      ],
      "name": "out",
      "type": "event"
    },
    {
      "anonymous": false,
      "inputs": [
        {
          "indexed": false,
          "internalType": "string",
          "name": "s",
          "type": "string"
        },
        {
          "indexed": false,
          "internalType": "uint256",
          "name": "pchoice",
          "type": "uint256"
        },
        {
          "indexed": false,
          "internalType": "uint256",
          "name": "cchoice",
          "type": "uint256"
        }
      ],
      "name": "choicesTestting",
      "type": "event"
    },
    {
      "constant": false,
      "inputs": [],
      "name": "transfertocontract",
      "outputs": [],
      "payable": true,
      "stateMutability": "payable",
      "type": "function"
    },
    {
      "constant": false,
      "inputs": [],
      "name": "p_init",
      "outputs": [],
      "payable": true,
      "stateMutability": "payable",
      "type": "function"
    },
    {
      "constant": true,
      "inputs": [],
      "name": "getCurrentGameId",
      "outputs": [
        {
          "internalType": "uint256",
          "name": "",
          "type": "uint256"
        }
      ],
      "payable": false,
      "stateMutability": "view",
      "type": "function"
    },
    {
      "constant": true,
      "inputs": [],
      "name": "showContractBalance",
      "outputs": [
        {
          "internalType": "uint256",
          "name": "",
          "type": "uint256"
        }
      ],
      "payable": false,
      "stateMutability": "view",
      "type": "function"
    },
    {
      "constant": true,
      "inputs": [],
      "name": "showBalance",
      "outputs": [
        {
          "internalType": "uint256",
          "name": "",
          "type": "uint256"
        }
      ],
      "payable": false,
      "stateMutability": "view",
      "type": "function"
    },
    {
      "constant": false,
      "inputs": [
        {
          "internalType": "uint256",
          "name": "id",
          "type": "uint256"
        },
        {
          "internalType": "uint256",
          "name": "choice",
          "type": "uint256"
        }
      ],
      "name": "pmove",
      "outputs": [
        {
          "internalType": "uint256",
          "name": "computer_choice",
          "type": "uint256"
        }
      ],
      "payable": true,
      "stateMutability": "payable",
      "type": "function"
    },
    {
      "constant": false,
      "inputs": [],
      "name": "p1_init",
      "outputs": [],
      "payable": true,
      "stateMutability": "payable",
      "type": "function"
    },
    {
      "constant": false,
      "inputs": [
        {
          "internalType": "uint256",
          "name": "id",
          "type": "uint256"
        }
      ],
      "name": "p2_init",
      "outputs": [],
      "payable": true,
      "stateMutability": "payable",
      "type": "function"
    },
    {
      "constant": false,
      "inputs": [
        {
          "internalType": "uint256",
          "name": "id",
          "type": "uint256"
        },
        {
          "internalType": "bytes32",
          "name": "hashVal",
          "type": "bytes32"
        }
      ],
      "name": "p1_hashmove",
      "outputs": [],
      "payable": false,
      "stateMutability": "nonpayable",
      "type": "function"
    },
    {
      "constant": false,
      "inputs": [
        {
          "internalType": "uint256",
          "name": "id",
          "type": "uint256"
        },
        {
          "internalType": "bytes32",
          "name": "hashVal",
          "type": "bytes32"
        }
      ],
      "name": "p2_hashmove",
      "outputs": [],
      "payable": false,
      "stateMutability": "nonpayable",
      "type": "function"
    },
    {
      "constant": false,
      "inputs": [
        {
          "internalType": "uint256",
          "name": "id",
          "type": "uint256"
        },
        {
          "internalType": "string",
          "name": "x",
          "type": "string"
        }
      ],
      "name": "p1_reveal",
      "outputs": [
        {
          "internalType": "uint256",
          "name": "",
          "type": "uint256"
        }
      ],
      "payable": false,
      "stateMutability": "nonpayable",
      "type": "function"
    },
    {
      "constant": false,
      "inputs": [
        {
          "internalType": "uint256",
          "name": "id",
          "type": "uint256"
        },
        {
          "internalType": "string",
          "name": "x",
          "type": "string"
        }
      ],
      "name": "p2_reveal",
      "outputs": [],
      "payable": false,
      "stateMutability": "nonpayable",
      "type": "function"
    }
  ],
  "bytecode": "0x608060405260006001556001600255336000806101000a81548173ffffffffffffffffffffffffffffffffffffffff021916908373ffffffffffffffffffffffffffffffffffffffff1602179055506128298061005d6000396000f3fe6080604052600436106100f35760003560e01c80638da5cb5b1161008a578063ca6bfed011610059578063ca6bfed014610453578063cddbe7291461045d578063d52f1cb014610547578063f8a29a451461058c576100f3565b80638da5cb5b1461035a578063901c947f146103b1578063a2635401146103dc578063a414bda414610407576100f3565b8063431e09c2116100c6578063431e09c2146101fa5780634d7beeea146102045780637c54dc56146102ea57806381b2d07b1461032f576100f3565b8063057440d3146100f55780632f099cd31461012057806332ba8c58146101c25780633c3ed39e146101f0575b005b34801561010157600080fd5b5061010a61065e565b6040518082815260200191505060405180910390f35b34801561012c57600080fd5b506101596004803603602081101561014357600080fd5b8101908080359060200190929190505050610664565b60405180871515151581526020018673ffffffffffffffffffffffffffffffffffffffff1673ffffffffffffffffffffffffffffffffffffffff168152602001858152602001848152602001838152602001828152602001965050505050505060405180910390f35b6101ee600480360360208110156101d857600080fd5b81019080803590602001909291905050506106cd565b005b6101f8610aa7565b005b610202610cb9565b005b34801561021057600080fd5b506102d46004803603604081101561022757600080fd5b81019080803590602001909291908035906020019064010000000081111561024e57600080fd5b82018360208201111561026057600080fd5b8035906020019184600183028401116401000000008311171561028257600080fd5b91908080601f016020809104026020016040519081016040528093929190818152602001838380828437600081840152601f19601f820116905080830192505050505050509192919290505050610dcb565b6040518082815260200191505060405180910390f35b3480156102f657600080fd5b5061032d6004803603604081101561030d57600080fd5b8101908080359060200190929190803590602001909291905050506110bb565b005b34801561033b57600080fd5b50610344611222565b6040518082815260200191505060405180910390f35b34801561036657600080fd5b5061036f611252565b604051808273ffffffffffffffffffffffffffffffffffffffff1673ffffffffffffffffffffffffffffffffffffffff16815260200191505060405180910390f35b3480156103bd57600080fd5b506103c6611277565b6040518082815260200191505060405180910390f35b3480156103e857600080fd5b506103f16112a7565b6040518082815260200191505060405180910390f35b61043d6004803603604081101561041d57600080fd5b8101908080359060200190929190803590602001909291905050506112b1565b6040518082815260200191505060405180910390f35b61045b611834565b005b34801561046957600080fd5b506104966004803603602081101561048057600080fd5b8101908080359060200190929190505050611a7b565b604051808b1515151581526020018a73ffffffffffffffffffffffffffffffffffffffff1673ffffffffffffffffffffffffffffffffffffffff1681526020018973ffffffffffffffffffffffffffffffffffffffff1673ffffffffffffffffffffffffffffffffffffffff1681526020018881526020018781526020018681526020018581526020018481526020018381526020018281526020019a505050505050505050505060405180910390f35b34801561055357600080fd5b5061058a6004803603604081101561056a57600080fd5b810190808035906020019092919080359060200190929190505050611b1c565b005b34801561059857600080fd5b5061065c600480360360408110156105af57600080fd5b8101908080359060200190929190803590602001906401000000008111156105d657600080fd5b8201836020820111156105e857600080fd5b8035906020019184600183028401116401000000008311171561060a57600080fd5b91908080601f016020809104026020016040519081016040528093929190818152602001838380828437600081840152601f19601f820116905080830192505050505050509192919290505050611c83565b005b60035481565b60046020528060005260406000206000915090508060000160009054906101000a900460ff16908060000160019054906101000a900473ffffffffffffffffffffffffffffffffffffffff16908060010154908060020154908060030154908060040154905086565b600115156005600083815260200190815260200160002060000160009054906101000a900460ff1615151461076a576040517f08c379a000000000000000000000000000000000000000000000000000000000815260040180806020018281038252600e8152602001807f706c617965723120616273656e7400000000000000000000000000000000000081525060200191505060405180910390fd5b3373ffffffffffffffffffffffffffffffffffffffff166005600083815260200190815260200160002060000160019054906101000a900473ffffffffffffffffffffffffffffffffffffffff1673ffffffffffffffffffffffffffffffffffffffff161415610842576040517f08c379a00000000000000000000000000000000000000000000000000000000081526004018080602001828103825260198152602001807f63616e6e6f7420706c6179207769746820796f757273656c660000000000000081525060200191505060405180910390fd5b600560008281526020019081526020016000206002015434146108cd576040517f08c379a00000000000000000000000000000000000000000000000000000000081526004018080602001828103825260178152602001807f62657474696e6720616d6f756e74206d69736d6174636800000000000000000081525060200191505060405180910390fd5b6040518061014001604052806001151581526020016005600084815260200190815260200160002060000160019054906101000a900473ffffffffffffffffffffffffffffffffffffffff1673ffffffffffffffffffffffffffffffffffffffff1681526020013373ffffffffffffffffffffffffffffffffffffffff1681526020016005600084815260200190815260200160002060020154815260200160008152602001600081526020016000801b81526020016000801b81526020016000815260200160008152506005600083815260200190815260200160002060008201518160000160006101000a81548160ff02191690831515021790555060208201518160000160016101000a81548173ffffffffffffffffffffffffffffffffffffffff021916908373ffffffffffffffffffffffffffffffffffffffff16021790555060408201518160010160006101000a81548173ffffffffffffffffffffffffffffffffffffffff021916908373ffffffffffffffffffffffffffffffffffffffff160217905550606082015181600201556080820151816003015560a0820151816004015560c0820151816005015560e082015181600601556101008201518160070155610120820151816008015590505050565b60003411610b1d576040517f08c379a000000000000000000000000000000000000000000000000000000000815260040180806020018281038252600f8152602001807f626574206d757374206265203e2030000000000000000000000000000000000081525060200191505060405180910390fd5b6040518061014001604052806001151581526020013373ffffffffffffffffffffffffffffffffffffffff168152602001600073ffffffffffffffffffffffffffffffffffffffff16815260200134815260200160008152602001600081526020016000801b81526020016000801b815260200160008152602001600081525060056000600160008154600101919050819055815260200190815260200160002060008201518160000160006101000a81548160ff02191690831515021790555060208201518160000160016101000a81548173ffffffffffffffffffffffffffffffffffffffff021916908373ffffffffffffffffffffffffffffffffffffffff16021790555060408201518160010160006101000a81548173ffffffffffffffffffffffffffffffffffffffff021916908373ffffffffffffffffffffffffffffffffffffffff160217905550606082015181600201556080820151816003015560a0820151816004015560c0820151816005015560e0820151816006015561010082015181600701556101208201518160080155905050565b3373ffffffffffffffffffffffffffffffffffffffff166000809054906101000a900473ffffffffffffffffffffffffffffffffffffffff1673ffffffffffffffffffffffffffffffffffffffff1614610d7b576040517f08c379a00000000000000000000000000000000000000000000000000000000081526004018080602001828103825260118152602001807f796f7520617265206e6f74206f776e657200000000000000000000000000000081525060200191505060405180910390fd5b3073ffffffffffffffffffffffffffffffffffffffff166108fc349081150290604051600060405180830381858888f19350505050158015610dc1573d6000803e3d6000fd5b5034600381905550565b60003373ffffffffffffffffffffffffffffffffffffffff166005600085815260200190815260200160002060000160019054906101000a900473ffffffffffffffffffffffffffffffffffffffff1673ffffffffffffffffffffffffffffffffffffffff1614610ea4576040517f08c379a00000000000000000000000000000000000000000000000000000000081526004018080602001828103825260208152602001807f796f7520617265206e6f7420706c61796572312077697468207468697320696481525060200191505060405180910390fd5b6000801b60056000858152602001908152602001600020600501541415610f33576040517f08c379a000000000000000000000000000000000000000000000000000000000815260040180806020018281038252601b8152602001807f686173686d6f76657320617265206e6f7420647261776e20796574000000000081525060200191505060405180910390fd5b60608290508080519060200120600560008681526020019081526020016000206005015414610fad576040517f08c379a00000000000000000000000000000000000000000000000000000000081526004018080602001828103825260238152602001806127d26023913960400191505060405180910390fd5b6000610fcf82600081518110610fbf57fe5b602001015160f81c60f81b61233c565b905080600560008781526020019081526020016000206003018190555060058060008781526020019081526020016000206003015411158061102857506001600560008781526020019081526020016000206003015410155b61109a576040517f08c379a00000000000000000000000000000000000000000000000000000000081526004018080602001828103825260198152602001807f496e76616c69642063686f69636520627920706c61796572310000000000000081525060200191505060405180910390fd5b60056000868152602001908152602001600020600301549250505092915050565b6005600083815260200190815260200160002060010160009054906101000a900473ffffffffffffffffffffffffffffffffffffffff1673ffffffffffffffffffffffffffffffffffffffff163373ffffffffffffffffffffffffffffffffffffffff1614611192576040517f08c379a00000000000000000000000000000000000000000000000000000000081526004018080602001828103825260208152602001807f796f7520617265206e6f7420706c61796572322077697468207468697320696481525060200191505060405180910390fd5b6000801b600560008481526020019081526020016000206006015414611203576040517f08c379a00000000000000000000000000000000000000000000000000000000081526004018080602001828103825260248152602001806127ae6024913960400191505060405180910390fd5b8060056000848152602001908152602001600020600601819055505050565b6000670de0b6b3a76400003373ffffffffffffffffffffffffffffffffffffffff16318161124c57fe5b04905090565b6000809054906101000a900473ffffffffffffffffffffffffffffffffffffffff1681565b6000670de0b6b3a76400003073ffffffffffffffffffffffffffffffffffffffff1631816112a157fe5b04905090565b6000600154905090565b60003373ffffffffffffffffffffffffffffffffffffffff166000809054906101000a900473ffffffffffffffffffffffffffffffffffffffff1673ffffffffffffffffffffffffffffffffffffffff161415611376576040517f08c379a00000000000000000000000000000000000000000000000000000000081526004018080602001828103825260198152602001807f63616e6e6f7420706c6179207769746820796f757273656c660000000000000081525060200191505060405180910390fd5b3373ffffffffffffffffffffffffffffffffffffffff166004600085815260200190815260200160002060000160019054906101000a900473ffffffffffffffffffffffffffffffffffffffff1673ffffffffffffffffffffffffffffffffffffffff161461144d576040517f08c379a000000000000000000000000000000000000000000000000000000000815260040180806020018281038252600e8152602001807f696e76616c696420706c6179657200000000000000000000000000000000000081525060200191505060405180910390fd5b60058211158061145e575060018210155b6114d0576040517f08c379a000000000000000000000000000000000000000000000000000000000815260040180806020018281038252600e8152602001807f496e76616c69642063686f69636500000000000000000000000000000000000081525060200191505060405180910390fd5b81600460008581526020019081526020016000206002018190555060016004600085815260200190815260200160002060030154016004600085815260200190815260200160002060030181905550600360025401600281905550600060016005600280544460405160200180838152602001828152602001925050506040516020818303038152906040526040518082805190602001908083835b6020831061158f578051825260208201915060208101905060208303925061156c565b6001836020036101000a038019825116818451168082178552505050505050905001915050602060405180830381855afa1580156115d1573d6000803e3d6000fd5b5050506040513d60208110156115e657600080fd5b810190808051906020019092919050505060001c8161160157fe5b0601905060006116118583612494565b9050600181141561165157600160046000878152602001908152602001600020600401540160046000878152602001908152602001600020600401819055505b60036004600087815260200190815260200160002060030154141561182957600160046000878152602001908152602001600020600401541115611794576004600086815260200190815260200160002060000160019054906101000a900473ffffffffffffffffffffffffffffffffffffffff1673ffffffffffffffffffffffffffffffffffffffff166108fc60026004600089815260200190815260200160002060010154029081150290604051600060405180830381858888f19350505050158015611724573d6000803e3d6000fd5b506000809054906101000a900473ffffffffffffffffffffffffffffffffffffffff1673ffffffffffffffffffffffffffffffffffffffff166108fc6003549081150290604051600060405180830381858888f1935050505015801561178e573d6000803e3d6000fd5b50611828565b60046000868152602001908152602001600020600101546002026003600082825401925050819055506000809054906101000a900473ffffffffffffffffffffffffffffffffffffffff1673ffffffffffffffffffffffffffffffffffffffff166108fc6003549081150290604051600060405180830381858888f19350505050158015611826573d6000803e3d6000fd5b505b5b819250505092915050565b3373ffffffffffffffffffffffffffffffffffffffff166000809054906101000a900473ffffffffffffffffffffffffffffffffffffffff1673ffffffffffffffffffffffffffffffffffffffff1614156118f7576040517f08c379a00000000000000000000000000000000000000000000000000000000081526004018080602001828103825260198152602001807f63616e6e6f7420706c6179207769746820796f757273656c660000000000000081525060200191505060405180910390fd5b6000341161196d576040517f08c379a000000000000000000000000000000000000000000000000000000000815260040180806020018281038252600f8152602001807f626574206d757374206265203e2030000000000000000000000000000000000081525060200191505060405180910390fd5b6040518060c001604052806001151581526020013373ffffffffffffffffffffffffffffffffffffffff1681526020013481526020016000815260200160008152602001600081525060046000600160008154600101919050819055815260200190815260200160002060008201518160000160006101000a81548160ff02191690831515021790555060208201518160000160016101000a81548173ffffffffffffffffffffffffffffffffffffffff021916908373ffffffffffffffffffffffffffffffffffffffff16021790555060408201518160010155606082015181600201556080820151816003015560a0820151816004015590505034600360008282540392505081905550565b60056020528060005260406000206000915090508060000160009054906101000a900460ff16908060000160019054906101000a900473ffffffffffffffffffffffffffffffffffffffff16908060010160009054906101000a900473ffffffffffffffffffffffffffffffffffffffff1690806002015490806003015490806004015490806005015490806006015490806007015490806008015490508a565b6005600083815260200190815260200160002060000160019054906101000a900473ffffffffffffffffffffffffffffffffffffffff1673ffffffffffffffffffffffffffffffffffffffff163373ffffffffffffffffffffffffffffffffffffffff1614611bf3576040517f08c379a00000000000000000000000000000000000000000000000000000000081526004018080602001828103825260208152602001807f796f7520617265206e6f7420706c61796572312077697468207468697320696481525060200191505060405180910390fd5b6000801b600560008481526020019081526020016000206005015414611c64576040517f08c379a00000000000000000000000000000000000000000000000000000000081526004018080602001828103825260248152602001806127ae6024913960400191505060405180910390fd5b8060056000848152602001908152602001600020600501819055505050565b3373ffffffffffffffffffffffffffffffffffffffff166005600084815260200190815260200160002060010160009054906101000a900473ffffffffffffffffffffffffffffffffffffffff1673ffffffffffffffffffffffffffffffffffffffff1614611d5a576040517f08c379a00000000000000000000000000000000000000000000000000000000081526004018080602001828103825260208152602001807f796f7520617265206e6f7420706c61796572322077697468207468697320696481525060200191505060405180910390fd5b6000801b600560008481526020019081526020016000206005015414158015611d9c57506000801b600560008481526020019081526020016000206006015414155b611e0e576040517f08c379a000000000000000000000000000000000000000000000000000000000815260040180806020018281038252601b8152602001807f686173686d6f76657320617265206e6f7420647261776e20796574000000000081525060200191505060405180910390fd5b60608190508080519060200120600560008581526020019081526020016000206006015414611e88576040517f08c379a00000000000000000000000000000000000000000000000000000000081526004018080602001828103825260238152602001806127d26023913960400191505060405180910390fd5b6000611eaa82600081518110611e9a57fe5b602001015160f81c60f81b61233c565b9050806005600086815260200190815260200160002060040181905550600580600086815260200190815260200160002060040154111580611f0357506001600560008681526020019081526020016000206004015410155b611f75576040517f08c379a00000000000000000000000000000000000000000000000000000000081526004018080602001828103825260198152602001807f496e76616c69642063686f69636520627920706c61796572320000000000000081525060200191505060405180910390fd5b7f3f8ea344101976f9c80012e633ee1441df10b1edb8bf70689e9d6cf83bc52b1a6005600086815260200190815260200160002060030154600560008781526020019081526020016000206004015460405180806020018481526020018381526020018281038252600d8152602001807f446562756767696e672e2e2e2e00000000000000000000000000000000000000815250602001935050505060405180910390a16000612024856125dc565b9050600181141561206457600160056000878152602001908152602001600020600801540160056000878152602001908152602001600020600801819055505b600160056000878152602001908152602001600020600701540160056000878152602001908152602001600020600701819055506004600560008781526020019081526020016000206007015414156122c157600260056000878152602001908152602001600020600801541115612171576005600086815260200190815260200160002060000160019054906101000a900473ffffffffffffffffffffffffffffffffffffffff1673ffffffffffffffffffffffffffffffffffffffff166108fc60026005600089815260200190815260200160002060020154029081150290604051600060405180830381858888f1935050505015801561216b573d6000803e3d6000fd5b506122c0565b60026005600087815260200190815260200160002060080154101561222b576005600086815260200190815260200160002060010160009054906101000a900473ffffffffffffffffffffffffffffffffffffffff1673ffffffffffffffffffffffffffffffffffffffff166108fc60026005600089815260200190815260200160002060020154029081150290604051600060405180830381858888f19350505050158015612225573d6000803e3d6000fd5b506122bf565b60056000868152602001908152602001600020600201546002026003600082825401925050819055506000809054906101000a900473ffffffffffffffffffffffffffffffffffffffff1673ffffffffffffffffffffffffffffffffffffffff166108fc6003549081150290604051600060405180830381858888f193505050501580156122bd573d6000803e3d6000fd5b505b5b5b60006005600087815260200190815260200160002060030181905550600060056000878152602001908152602001600020600401819055506000801b60056000878152602001908152602001600020600501819055506000801b60056000878152602001908152602001600020600601819055505050505050565b60007f3100000000000000000000000000000000000000000000000000000000000000827effffffffffffffffffffffffffffffffffffffffffffffffffffffffffffff19161415612391576001905061248f565b7f3200000000000000000000000000000000000000000000000000000000000000827effffffffffffffffffffffffffffffffffffffffffffffffffffffffffffff191614156123e4576002905061248f565b7f3300000000000000000000000000000000000000000000000000000000000000827effffffffffffffffffffffffffffffffffffffffffffffffffffffffffffff19161415612437576003905061248f565b7f3400000000000000000000000000000000000000000000000000000000000000827effffffffffffffffffffffffffffffffffffffffffffffffffffffffffffff1916141561248a576004905061248f565b600590505b919050565b60003373ffffffffffffffffffffffffffffffffffffffff166004600085815260200190815260200160002060000160019054906101000a900473ffffffffffffffffffffffffffffffffffffffff1673ffffffffffffffffffffffffffffffffffffffff161461256d576040517f08c379a000000000000000000000000000000000000000000000000000000000815260040180806020018281038252601c8152602001807f756e617574686f7269656420706c617965722072657665616c696e670000000081525060200191505060405180910390fd5b6000600460008581526020019081526020016000206002015490508281141561259a5760009150506125d6565b826001600583816125a757fe5b060114806125c15750826002600583816125bd57fe5b0601145b156125d05760019150506125d6565b60029150505b92915050565b60003373ffffffffffffffffffffffffffffffffffffffff166005600084815260200190815260200160002060000160019054906101000a900473ffffffffffffffffffffffffffffffffffffffff1673ffffffffffffffffffffffffffffffffffffffff1614806126af57503373ffffffffffffffffffffffffffffffffffffffff166005600084815260200190815260200160002060010160009054906101000a900473ffffffffffffffffffffffffffffffffffffffff1673ffffffffffffffffffffffffffffffffffffffff16145b612721576040517f08c379a000000000000000000000000000000000000000000000000000000000815260040180806020018281038252601c8152602001807f756e617574686f7269656420706c617965722072657665616c696e670000000081525060200191505060405180910390fd5b6000600560008481526020019081526020016000206003015490506000600560008581526020019081526020016000206004015490508082141561276a576000925050506127a8565b8060016005848161277757fe5b0601148061279157508060026005848161278d57fe5b0601145b156127a1576001925050506127a8565b6002925050505b91905056fe752063616e6e6f74206368616e6765207572206d6f766520696e2073616d65207475726e4861736820616e642063757272656e742063686f69636573206d69736d617463686564a265627a7a7231582087c2283361845cecde7336b71c3eeca152e4d3a8598c59223ea31ecc58d57e9164736f6c634300050b0032",
  "source": "pragma solidity >=0.4.22 <0.6.0;\n\ncontract Game \n{\n\n    struct single_player\n    {\n        bool flag;\n        address payable p;\n        uint val;\n        uint choice;\n        uint game_count;\n        uint p_win;\n    }\n\n    struct two_player\n    {\n        bool flag;\n        address payable p1;\n        address payable p2;\n        uint val;\n        uint choice1;\n        uint choice2;\n        bytes32 hash1;\n        bytes32 hash2;\n        uint game_count;\n        uint p1_win;\n    }\n    \n    address payable public owner;\n    uint total_count=0;\n\n    \n    uint rnumber=1;\n    uint public contract_balance;\n  \n    mapping(uint => single_player) public computer_game;\n    mapping(uint => two_player) public game;  \n\n    event out(string s, uint p1c, uint p2c);\n    \n    event choicesTestting(string s, uint pchoice, uint cchoice);\n\n\n    constructor ()payable public\n    {\n        owner = msg.sender;\n    }\n    \n    function() payable external{}\n\n    function transfertocontract() external payable\n    {\n        require(owner == msg.sender, 'you are not owner');\n        address(this).transfer(msg.value);\n        contract_balance=msg.value;\n    }\n    \n    function p_init() public payable \n    {\n        require(owner != msg.sender, 'cannot play with yourself');\n        require(msg.value > 0, 'bet must be > 0');\n\n        //insert player address in p and bidamt in val\n        computer_game[++total_count] = single_player({flag:true, p: msg.sender, val: msg.value,choice:0,game_count:0,p_win:0});\n        contract_balance -= msg.value;\n        \n    } \n\n    function getCurrentGameId()public view returns(uint)\n    {\n        return total_count;\n    }\n    // //\n    \n    function showContractBalance() public view returns(uint)\n    {\n        return (address(this).balance/(1 ether));\n    }\n    \n    function showBalance() public view returns(uint)\n    {\n     return (msg.sender.balance/(1 ether));\n    }\n\n    function pmove(uint id, uint choice) external payable returns (uint computer_choice)\n    {\n        require(owner!= msg.sender, 'cannot play with yourself');\n        require(computer_game[id].p == msg.sender, 'invalid player');\n        require(uint(choice) <= 5 || uint(choice) >= 1, 'Invalid choice');\n        \n\n        computer_game[id].choice=choice;\n        computer_game[id].game_count = computer_game[id].game_count + 1;\n\n        rnumber=rnumber + 3;\n        uint rnd = uint(uint256(sha256(abi.encodePacked(rnumber, block.difficulty)))) % 5 + 1;\n        uint ans = reveal_winner_single_player(id,rnd);\n        \n        if(ans==1)\n        {\n          computer_game[id].p_win=computer_game[id].p_win + 1; \n        }\n        if(computer_game[id].game_count == 3)\n        {\n            if(computer_game[id].p_win > 1)\n            {\n                computer_game[id].p.transfer(computer_game[id].val * 2);\n                owner.transfer(contract_balance);\n            }\n            else \n            {\n                contract_balance += 2 * computer_game[id].val;\n                owner.transfer(contract_balance);\n            }\n            \n            // delete computer_game[id]; ?\n        }\n        \n\n\n        //emit choicesTestting(\"choices :\",computer_game[id].choice, rnd);\n\n        //computer_game[id].choice=0;\n        \n        return rnd;\n    }\n    \n    \n    function reveal_winner_single_player(uint id,uint computer_choice) internal view returns (uint) \n    {\n        require(computer_game[id].p==msg.sender, 'unauthoried player revealing');\n        uint t1=computer_game[id].choice;\n\n        if(t1 == computer_choice) return 0;\n        if((t1%5)+1 == computer_choice || (t1%5)+2 == computer_choice) return 1;\n        else return 2;\n    }\n    \n    function p1_init() external payable  \n    {\n        require(msg.value > 0, 'bet must be > 0');\n        game[++total_count] = two_player({p1: msg.sender,p2: address(0),val: msg.value,choice1:0,choice2:0,game_count:0,p1_win:0,hash1:0,hash2:0,flag:true});\n    }\n\n    function p2_init(uint id) external payable\n    {\n        require(game[id].flag==true, 'player1 absent');\n        require(game[id].p1 != msg.sender, 'cannot play with yourself');\n        require(msg.value == game[id].val, 'betting amount mismatch');\n\n        game[id] = two_player({p1: game[id].p1, p2:msg.sender, val: game[id].val,choice1:0,choice2:0,game_count:0,p1_win:0,hash1:0,hash2:0,flag:true});\n    }\n\n    function p1_hashmove(uint id, bytes32 hashVal) external \n    {\n        require(msg.sender == game[id].p1 , 'you are not player1 with this id');\n        require(game[id].hash1 == 0, 'u cannot change ur move in same turn');\n        game[id].hash1 = hashVal;\n    }\n    \n    \n    function p2_hashmove(uint id, bytes32 hashVal) external \n    {\n        require(msg.sender == game[id].p2 , 'you are not player2 with this id');\n        require(game[id].hash2 == 0, 'u cannot change ur move in same turn');\n        game[id].hash2 = hashVal;\n    }\n    \n    \n    function p1_reveal(uint id, string memory x)  public returns(uint) \n    {\n        require(game[id].p1 == msg.sender, 'you are not player1 with this id');\n        require(game[id].hash1 != 0 , \"hashmoves are not drawn yet\");\n        \n        bytes memory y = bytes(x);\n        require(game[id].hash1 == keccak256(y), 'Hash and current choices mismatched');\n        \n        uint p1move = byteToMove(y[0]);\n        game[id].choice1 = p1move;\n        \n        require(uint(game[id].choice1) <= 5 || uint(game[id].choice1) >= 1, 'Invalid choice by player1');\n        \n        return game[id].choice1;\n    }\n    \n    \n    \n    function p2_reveal(uint id, string memory x) public\n    {\n        require(game[id].p2 == msg.sender, 'you are not player2 with this id');\n        require(game[id].hash1 != 0 && game[id].hash2 != 0 , \"hashmoves are not drawn yet\");\n\n        bytes memory y = bytes(x);\n        require(game[id].hash2 == keccak256(y), 'Hash and current choices mismatched');\n        \n        uint p2move = byteToMove(y[0]);\n        game[id].choice2 = p2move;\n        \n        require(uint(game[id].choice2) <= 5 || uint(game[id].choice2) >= 1, 'Invalid choice by player2');\n        \n        //checking value of p1choice and p2choice    \n        emit out(\"Debugging....\", game[id].choice1, game[id].choice2);\n        \n        uint ans=reveal_winner(id);\n        if(ans==1)\n        {\n           game[id].p1_win=game[id].p1_win + 1; \n        }\n        game[id].game_count = game[id].game_count + 1;\n        \n        //play for 4 turns\n        if(game[id].game_count == 4)\n        {\n            if(game[id].p1_win > 2)game[id].p1.transfer(game[id].val * 2);\n            else if(game[id].p1_win < 2)game[id].p2.transfer(game[id].val * 2);\n            else \n            {\n                contract_balance += 2 * game[id].val;\n                //owner.transfer(game[id].val * 2);\n                owner.transfer(contract_balance);\n            \n            }\n        }\n        \n        game[id].choice1=0;game[id].choice2=0;\n        game[id].hash1=0;game[id].hash2=0;\n        \n    }\n    \n    function reveal_winner(uint id) internal view returns (uint) \n    {\n        require(game[id].p1==msg.sender || game[id].p2==msg.sender, 'unauthoried player revealing');\n        uint t1=game[id].choice1;\n        uint t2=game[id].choice2;\n\n        if(t1 == t2) return 0;\n        if((t1%5)+1 == t2 || (t1%5)+2 == t2) return 1;\n        else return 2;\n    }\n    \n    \n    function byteToMove(bytes1 b) private pure returns (uint) {\n        if(b == '1')\n            return 1;\n        if(b == '2')\n            return 2;\n        if(b == '3')\n            return 3;\n        if(b == '4')\n            return 4;\n        \n        return 5;\n    }\n    \n}\n",
  "sourcePath": "/home/anjul/Desktop/sub/sem3/blockchain/assignment/a1/contracts/Game.sol",
  "compiler": {
    "name": "solc",
    "version": "0.5.11+commit.c082d0b4.Emscripten.clang"
  },
  "schemaVersion": "3.0.16",
  "updatedAt": "2019-09-28T15:45:16.290Z",
  "devdoc": {
    "methods": {}
  },
  "userdoc": {
    "methods": {}
  }
}